{
  "contractName": "Registradora",
  "abi": [
    {
      "constant": true,
      "inputs": [
        {
          "internalType": "uint256",
          "name": "",
          "type": "uint256"
        }
      ],
      "name": "recebiveis",
      "outputs": [
        {
          "internalType": "contract Recebivel",
          "name": "",
          "type": "address"
        }
      ],
      "payable": false,
      "stateMutability": "view",
      "type": "function"
    },
    {
      "constant": true,
      "inputs": [],
      "name": "totalRecebiveis",
      "outputs": [
        {
          "internalType": "uint256",
          "name": "",
          "type": "uint256"
        }
      ],
      "payable": false,
      "stateMutability": "view",
      "type": "function"
    },
    {
      "constant": false,
      "inputs": [
        {
          "internalType": "uint256",
          "name": "_codIncorporadora",
          "type": "uint256"
        },
        {
          "internalType": "uint256",
          "name": "_codContratoEletronico",
          "type": "uint256"
        },
        {
          "internalType": "string",
          "name": "_cnpjCustodiante",
          "type": "string"
        },
        {
          "internalType": "string",
          "name": "_nomeCustodiante",
          "type": "string"
        },
        {
          "internalType": "uint256",
          "name": "_totalParcelas",
          "type": "uint256"
        },
        {
          "internalType": "uint256",
          "name": "_totalRecebivel",
          "type": "uint256"
        },
        {
          "internalType": "uint256",
          "name": "_dataPrimeiroVencimento",
          "type": "uint256"
        }
      ],
      "name": "novoRecebivel",
      "outputs": [],
      "payable": false,
      "stateMutability": "nonpayable",
      "type": "function"
    }
  ],
  "bytecode": "0x6080604052600060015534801561001557600080fd5b50610bd4806100256000396000f3fe608060405234801561001057600080fd5b50600436106100415760003560e01c8063837ee75b146100465780639377773d146100645780639d76427d146101e8575b600080fd5b61004e610256565b6040518082815260200191505060405180910390f35b6101e6600480360360e081101561007a57600080fd5b810190808035906020019092919080359060200190929190803590602001906401000000008111156100ab57600080fd5b8201836020820111156100bd57600080fd5b803590602001918460018302840111640100000000831117156100df57600080fd5b91908080601f016020809104026020016040519081016040528093929190818152602001838380828437600081840152601f19601f8201169050808301925050505050505091929192908035906020019064010000000081111561014257600080fd5b82018360208201111561015457600080fd5b8035906020019184600183028401116401000000008311171561017657600080fd5b91908080601f016020809104026020016040519081016040528093929190818152602001838380828437600081840152601f19601f82011690508083019250505050505050919291929080359060200190929190803590602001909291908035906020019092919050505061025c565b005b610214600480360360208110156101fe57600080fd5b8101908080359060200190929190505050610410565b604051808273ffffffffffffffffffffffffffffffffffffffff1673ffffffffffffffffffffffffffffffffffffffff16815260200191505060405180910390f35b60015481565b6000878787878787876040516102719061044c565b808881526020018781526020018060200180602001868152602001858152602001848152602001838103835288818151815260200191508051906020019080838360005b838110156102d05780820151818401526020810190506102b5565b50505050905090810190601f1680156102fd5780820380516001836020036101000a031916815260200191505b50838103825287818151815260200191508051906020019080838360005b8381101561033657808201518184015260208101905061031b565b50505050905090810190601f1680156103635780820380516001836020036101000a031916815260200191505b509950505050505050505050604051809103906000f08015801561038b573d6000803e3d6000fd5b50905060008190806001815401808255809150509060018203906000526020600020016000909192909190916101000a81548173ffffffffffffffffffffffffffffffffffffffff021916908373ffffffffffffffffffffffffffffffffffffffff160217905550506001600081548092919060010191905055505050505050505050565b6000818154811061041d57fe5b906000526020600020016000915054906101000a900473ffffffffffffffffffffffffffffffffffffffff1681565b6107468061045a8339019056fe608060405234801561001057600080fd5b50604051610746380380610746833981810160405260e081101561003357600080fd5b8101908080519060200190929190805190602001909291908051604051939291908464010000000082111561006757600080fd5b8382019150602082018581111561007d57600080fd5b825186600182028301116401000000008211171561009a57600080fd5b8083526020830192505050908051906020019080838360005b838110156100ce5780820151818401526020810190506100b3565b50505050905090810190601f1680156100fb5780820380516001836020036101000a031916815260200191505b506040526020018051604051939291908464010000000082111561011e57600080fd5b8382019150602082018581111561013457600080fd5b825186600182028301116401000000008211171561015157600080fd5b8083526020830192505050908051906020019080838360005b8381101561018557808201518184015260208101905061016a565b50505050905090810190601f1680156101b25780820380516001836020036101000a031916815260200191505b50604052602001805190602001909291908051906020019092919080519060200190929190505050866000819055508560018190555084600290805190602001906101fe92919061035c565b50836003908051906020019061021592919061035c565b5082600481905550816005819055506000819050600084848161023457fe5b049050600088905060008090505b8681101561034c576102526103dc565b6040518060a001604052808460010194508481526020018581526020018681526020018a81526020016000600281111561028857fe5b815250905060006006829080600181540180825580915050906001820390600052602060002090600502016000909192909190915060008201518160000155602082015181600101556040820151816002015560608201518160030190805190602001906102f7929190610416565b5060808201518160040160006101000a81548160ff0219169083600281111561031c57fe5b02179055505050905080600760008681526020019081526020016000208190555050508080600101915050610242565b50505050505050505050506104bb565b828054600181600116156101000203166002900490600052602060002090601f016020900481019282601f1061039d57805160ff19168380011785556103cb565b828001600101855582156103cb579182015b828111156103ca5782518255916020019190600101906103af565b5b5090506103d89190610496565b5090565b6040518060a00160405280600081526020016000815260200160008152602001606081526020016000600281111561041057fe5b81525090565b828054600181600116156101000203166002900490600052602060002090601f016020900481019282601f1061045757805160ff1916838001178555610485565b82800160010185558215610485579182015b82811115610484578251825591602001919060010190610469565b5b5090506104929190610496565b5090565b6104b891905b808211156104b457600081600090555060010161049c565b5090565b90565b61027c806104ca6000396000f3fe608060405234801561001057600080fd5b50600436106100415760003560e01c806316b386d7146100465780632ed3b1c714610064578063da34d8fc14610135575b600080fd5b61004e610153565b6040518082815260200191505060405180910390f35b6100906004803603602081101561007a57600080fd5b8101908080359060200190929190505050610159565b60405180868152602001858152602001848152602001806020018360028111156100b657fe5b60ff168152602001828103825284818151815260200191508051906020019080838360005b838110156100f65780820151818401526020810190506100db565b50505050905090810190601f1680156101235780820380516001836020036101000a031916815260200191505b50965050505050505060405180910390f35b61013d610241565b6040518082815260200191505060405180910390f35b60005481565b6006818154811061016657fe5b9060005260206000209060050201600091509050806000015490806001015490806002015490806003018054600181600116156101000203166002900480601f0160208091040260200160405190810160405280929190818152602001828054600181600116156101000203166002900480156102245780601f106101f957610100808354040283529160200191610224565b820191906000526020600020905b81548152906001019060200180831161020757829003601f168201915b5050505050908060040160009054906101000a900460ff16905085565b6001548156fea265627a7a723158209a27e787813f34b24bd95567ceed450393745ca0507422f0f146d2c5b10cd23864736f6c63430005100032a265627a7a72315820f62855ff42098403176fb6af89d606d04237159c46e07eda42ed1f3a90bda71a64736f6c63430005100032",
  "source": "pragma solidity >=0.4.21 <0.7.0;\n\nimport \"./Recebivel.sol\";\n\ncontract Registradora {\n\n  Recebivel[] public recebiveis;\n  uint public totalRecebiveis = 0;\n\n  function novoRecebivel(uint _codIncorporadora, uint _codContratoEletronico,\n    string memory _cnpjCustodiante, string memory _nomeCustodiante, uint _totalParcelas, uint _totalRecebivel,\n    uint _dataPrimeiroVencimento) public {\n      Recebivel recebivel = new Recebivel(_codIncorporadora, _codContratoEletronico, _cnpjCustodiante,\n        _nomeCustodiante, _totalParcelas, _totalRecebivel, _dataPrimeiroVencimento);\n\n      recebiveis.push(recebivel);\n      totalRecebiveis++;\n  }\n\n}",
  "sourcePath": "/Users/jbombardelli/Desenv/mercado/registradora-poc/contract/contracts/Registradora.sol",
  "compiler": {
    "name": "solc",
    "version": "0.5.16+commit.9c3226ce.Emscripten.clang"
  },
  "schemaVersion": "3.0.21",
  "updatedAt": "2020-01-21T17:00:20.569Z",
  "networkType": "ethereum",
  "devdoc": {
    "methods": {}
  },
  "userdoc": {
    "methods": {}
  }
}